:1040000038C00020F1420000ED420000ED42000007
:10401000ED420000ED420000ED4200000000000013
:10402000000000000000000000000000ED42000061
:10403000ED42000000000000ED420000ED420000F3
:10404000ED420000ED420000ED420000ED420000B4
:10405000ED420000ED420000ED420000ED420000A4
:10406000ED420000ED420000ED420000ED42000094
:10407000ED420000ED420000ED420000ED42000084
:10408000ED420000ED420000ED420000ED42000074
:10409000ED420000ED420000ED420000ED42000064
:1040A000ED420000ED420000ED420000ED42000054
:1040B000ED420000ED420000ED420000ED42000044
:1040C000ED420000ED420000ED420000ED42000034
:1040D000ED420000ED420000ED420000ED42000024
:1040E000ED420000ED420000ED420000ED42000014
:1040F00000000000B5420000ED420000ED4200006B
:10410000ED420000ED420000ED420000ED420000F3
:10411000ED420000ED420000ED420000ED420000E3
:10412000ED420000ED420000ED420000ED420000D3
:10413000ED420000ED420000ED420000ED420000C3
:10414000ED420000ED420000ED420000ED420000B3
:10415000ED420000ED420000000000000000000001
:10416000000000000000000000000000000000004F
:10417000000000000000000000000000000000003F
:10418000ED420000ED420000ED420000ED42000073
:1041900000000000ED420000ED420000ED42000092
:1041A000ED420000ED420000ED420000ED42000053
:1041B000ED420000ED420000ED420000ED42000043
:1041C000ED420000ED420000ED420000ED42000033
:1041D000ED420000ED420000ED420000ED42000023
:1041E000ED420000ED420000ED420000ED42000013
:1041F000ED420000ED420000ED420000ED42000003
:10420000ED4200000000000000000000ED42000050
:10421000ED420000ED420000ED420000ED420000E2
:10422000ED420000ED420000ED420000ED420000D2
:10423000ED420000ED420000ED420000ED420000C2
:10424000ED420000ED420000ED420000ED420000B2
:10425000ED420000ED420000ED420000ED420000A2
:104260000000000010B5054C237833B9044B13B19E
:104270000448AFF300800123237010BD0400002028
:10428000000000008C47000008B5034B1BB1034938
:104290000348AFF3008008BD0000000008000020C4
:1042A0008C470000014B024A1A6070470000002052
:1042B000006CDC020B4A937882B0DBB20193019B65
:1042C000990705D5084B1B6813B1506802B0184711
:1042D000019BDB0704D5044B5B680BB1014AF4E793
:1042E00002B070470000024124000020FEE70000F9
:1042F00008B5144A144B9A4203D01449043A8B422D
:1043000018D3134B134A0021934218D3124A134B6C
:1043100022F07F029A60D3F8882042F47002C3F83A
:104320008820BFF34F8FBFF36F8F0D4B98470D4B16
:104330009847FEE752F8040F43F8040BDFE743F811
:10434000041BE1E78C47000000000020040000206F
:1043500004000020340000200040000000ED00E0D8
:10436000254700006943000008B5034B9847034BFD
:104370009847034B9847FEE7A542000045450000DB
:1043800055460000044B4FF400029A604FF0804203
:104390009A62024A9A62704700800041800000C021
:1043A000024B4FF400029A61704700BF0080004149
:1043B000024B4FF400025A61704700BF0080004179
:1043C00082B001230193019B012B01DD02B07047F4
:1043D000019B0133F6E70000094B0A4819680A4BB4
:1043E0004DF2FE02002908BF1A4610B511460446D8
:1043F00080470139FCD1A047013AFCD110BD00BF74
:1044000020000020C1430000BC41070010B5054B4F
:10441000054C9847A047054B98472346BDE81040F8
:10442000184700BFA1430000D9430000B14300007A
:10443000304A13889BB213802F4B1A7842F0010246
:104440001A705A68D007FCD44FF48272DA625A6844
:104450009106FCD44FF4827227491A624A6812F01E
:104460000402FBD1254B1A77254A9A6293F82C2037
:1044700012F01002FAD183F82020204B194693F84D
:104480002C205207FBD41A7F42F002021A7791F8CF
:104490002C309B07FBD49823184A81F820301369ED
:1044A000D805FCD5144B174A5A635A681106FCD438
:1044B0004522C3F88420114B3B225A63DA6B520722
:1044C000FCD44FF400629A63022283F830200B4B35
:1044D0001A6C9007FCD51A6CD107F9D5064B40F23F
:1044E00007321A625A685207FCD4074B01225A71EC
:1044F000704700BF00400041001C00400010004019
:1045000000000104060118000008004008B5024D33
:10451000024CA847A047FCE70D440000D943000027
:1045200008B5044B1B680BB1034B9847034B9847E6
:10453000034B9847200000203144000085430000D1
:104540000D450000024A936843F4000393607047EE
:1045500000800041024A936943F40003936170476D
:1045600000800041024A536943F4000353617047DD
:104570000080004182B040F6340300934FF4D272C1
:10458000009B002B01DC02B070470192019B002BC5
:1045900003DC009B013B0093F2E7019B013B01938D
:1045A000F4E700000548064910B54FF40004C46163
:1045B0008847C461BDE81040084700BF0080004143
:1045C0007545000010B5044B984704498847044BD3
:1045D0009847BDE810400847554500007545000064
:1045E0006545000010B5044B984704498847884743
:1045F000BDE81040084700BFA54500007545000014
:1046000010B5084CA047A047A047A047A0470649BF
:10461000884788478847884788478847BDE81040CB
:10462000084700BFE54500007545000010B5034888
:1046300080478047BDE81040004700BFC5450000E7
:1046400010B50349884788478847BDE810400847A8
:10465000754500002DE9F0412D4B2E4C2E4D2F4E6F
:104660009847B047A047A847A047A047A847A047FA
:10467000A047A047A04703270523013F2CD1A0470F
:10468000A047A047A047A047A047A047A0470327AF
:10469000B047A047A047A847A047A047013FF7D190
:1046A000A047A047A047A047A047A047A047A047D2
:1046B000A047A047A047A047A047A047A047A047C2
:1046C000A847A047A047A847A047A047A847A0479A
:1046D000A047134B9847FEE7013B012BCDD1B047D4
:1046E000A047A047A847B047A047A047A847B04762
:1046F000A047A047A847A047A047A047A0474FF022
:104700000C08B047A047A047B8F10108F9D1B3E7BA
:1047100045450000414600002D46000001460000CE
:104720002145000070B50D4E0D4CA41BA4100025B2
:10473000A54209D10B4E0C4C00F018F8A41BA41094
:104740000025A54205D170BD56F8253098470135A2
:10475000EEE756F8253098470135F2E77847000034
:1047600078470000784700007C470000F8B500BF9C
:10477000F8BC08BC9E46704789420000F8B500BFEF
:0C478000F8BC08BC9E4670476542000073
:04478C00006CDC02DF
:0400000300004000B9
:00000001FF
